:020000040800F2
:10800000706A0020DD81000847C90008C1C400086B
:1080100045C90008D59800082DE1000800000000BF
:10802000000000000000000000000000398100088E
:1080300035A20008000000007D810008E1D600089C
:10804000F7810008F7810008F7810008F781000830
:10805000F7810008F7810008F7810008F781000820
:10806000F7810008F7810008F7810008F781000810
:10807000F7810008F7810008F7810008F781000800
:10808000F7810008F7810008F7810008F7810008F0
:10809000F7810008F7810008F7810008F7810008E0
:1080A000F7810008F7810008F7810008F7810008D0
:1080B000F7810008F7810008F7810008F7810008C0
:1080C000F7810008F7810008F7810008F7810008B0
:1080D000F7810008E1DD0008F5DE00080DE000088A
:1080E000F7810008CDCB0008F7810008F781000870
:1080F000F781000800000000F7810008F781000800
:108100000000000000000000F7810008F78100086F
:10811000F7810008F7810008F781000800000000DF
:10812000F7810008DFF80CD000F0FCFD00480047A4
:10813000753F0108706A0020204B19680868B0E894
:10814000F00F80F30988BFF36F8F4FF0000080F3CA
:1081500011884EF00D0E70470000000006480068C0
:10816000006880F3088862B661B6BFF34F8FBFF333
:108170006F8F00DF00BF00BF08ED00E0EFF3098064
:10818000BFF36F8F0D4B1A6820E9F00F106008B530
:108190004FF0500080F311880DF034F94FF00000DB
:1081A00080F31188BDE8084019680868B0E8F00F4E
:1081B00080F30988BFF36F8F704700BF0000002075
:1081C000EFF311804FF0500181F31188704780F375
:1081D00011887047EFF3058070470000064880471C
:1081E00006480047FEE7FEE7FEE7FEE7FEE7FEE79C
:1081F000FEE7FEE7FEE7FEE75DDA000825810008FE
:1082000040EA01039B0703D009E008C9121F08C018
:10821000042AFAD203E011F8013B00F8013B521E98
:10822000F9D27047D2B201E000F8012B491EFBD20F
:1082300070470022F6E710B513460A460446194671
:10824000FFF7F0FF204610BD30B505462A460B4625
:1082500012F8010B13F8014B08B1A042F8D01CB181
:10826000002802D06D1CF1E7284630BD421C10F8F2
:10827000011B0029FBD1801A7047034611F8012B1E
:1082800000F8012B002AF9D11846704730B5054691
:108290000020034600E05B1C934205D2EC5CC85C06
:1082A000201A01D1002CF6D130BD00000FB400B56A
:1082B0008DB010A909900B9000914FF0FF300A90FB
:1082C00000200C9005480690054807906A4609A8CA
:1082D0000F9900F03FFB0DB05DF814FB71890008A9
:1082E0008F8900082DE9FF5F1D464FF0FF3BD5E960
:1082F000014691465F464FF00008A9697F1C01982E
:108300008847296A824688470028F6D1BAF1FF3F9C
:108310000CD024F4C064002E19DD600614D5BAF127
:108320002B0F09D0BAF12D0F0ED103E0584604B03F
:10833000BDE8F09F44F48064A9697F1C01988847D8
:10834000761E8246002E02DDBAF1300F03D0B9F15D
:10835000000F26D032E0A969761E44F400747F1C19
:10836000019888478246002E05DDBAF1780F06D0C5
:10837000BAF1580F03D0B9F1000F10D01EE0B9F1D7
:10838000000F02D0B9F1100F18D1A969761E24F49C
:1083900000747F1C019888478246102002E0082064
:1083A00000E00A20814609E008FB0908A969761E59
:1083B00044F400747F1C019888478246002E05DD36
:1083C0004946504600F0B1FA0028EDDAE969019813
:1083D0008847A00502D46FF00100A8E7E00725D187
:1083E000600613D5600502D5C8F1000000E04046E4
:1083F00029680A1D2A600968220501D5087015E060
:10840000220701D5088011E008600FE02868011DEF
:1084100029600068210502D580F8008006E0210768
:1084200002D5A0F8008001E0C0F8008038467EE761
:1084300070B5064608F0DEF9046805460A220021F8
:10844000304600F003FB2C6070BD80EA010210B5DD
:1084500002F00043400022D04A001FD0010E01EB81
:108460001261C0F35600C2F3560240F4000042F419
:108470000002A0FB022000047F39140400D0401C3D
:1084800050EA124001D44000491EC2B20C0604EB6F
:10849000D010401C4008802A02D003E0002010BD0C
:1084A00020F00100002900DA0020184310BD30B48C
:1084B00080EA010202F0004530F0004221F0004065
:1084C00013D090B1C30DD40DC2F31601C0F3160042
:1084D000E41A41F4000140F400027D34914201D3DA
:1084E000641C00E04900002C02DA30BC0020704718
:1084F0004FF400000023914201D3891A034340083E
:108500004FEA4101F7D151B1914202D14FF0004100
:1085100005E002D24FF0010101E06FF0010103EB31
:10852000C450284430BC00F0C9BA2DE9FE4F804643
:1085300081EA0300C00F0C46009021F0004123F0B7
:108540000045B8EB0200A94105D2404621469046BD
:108550001C460B46024623F00040104347D0270D2F
:10856000C7F30A00C3F30A510290401A0190402851
:108570006BDAC3F3130040F4801B0098924620B1DD
:108580000023D2EB030A63EB0B0B01985946C0F1B1
:108590004002504600F098F906460D4650465946AE
:1085A000019A00F0B0F910EB08006141002487EA5D
:1085B000115284EAE7731A4340D0009A62B3019AD9
:1085C000012A4FEA075215DC001B61EB02014FF054
:1085D000004202EA0752CDE90042001C41F5801139
:1085E00032462B4600F0B0FA03B0BDE8F08F4046AB
:1085F0002146F9E7001B61EB0201001C41F58013E5
:1086000000185B412018A2F5001747EB030140EA70
:10861000D570B6196D4111E06D084FEA360645EA8E
:10862000C0754FEA0752001B61EB0201001C41F5C7
:10863000801149084FEA30000019514132462B465B
:1086400003B0BDE8F04F00F070BA0098012240007E
:108650000023D0EB020263EBE073009821464FEA5F
:10866000E074B8EB000061EB0401E9E783F000433C
:108670005BE781F0004158E72DE9FE4F81EA0304F2
:1086800004F0004421F0004100944FF0000B23F06F
:10869000004350EA01045ED052EA03045BD0C3F306
:1086A0000A54C1F30A552C44A4F2F3340194A0FBFC
:1086B0000254C1F3130141F48011C3F3130343F4D3
:1086C000801301FB024400FB034E840A970A44EA2C
:1086D000815447EA8357A4FB076802958D0A05FB7E
:1086E00007854FEA932C04FB0C542705029D4FEAA3
:1086F000065847EA1637B5EB08056EEB070C870EF0
:10870000920E47EA811742EA8312A7FB0201B6EBF9
:108710000B0164EB00042B0D43EA0C335E1844EBB1
:108720001C50DA465146E7FB0201C5F313044FEA39
:108730000B3343EA14534FEA0432019C43EA060325
:10874000A4F10C040294009CCDE900B400F0FCF903
:1087500003B0BDE8F08F00200146F9E7C10F80EAC1
:10876000E0700844CA079623002100F0B0B99623B0
:108770000022114600F0ABB900F0004220F00040AA
:10878000C10DC0F3160040F400007F2901DA00207B
:108790007047962903DCC1F19601C84001E0963983
:1087A0008840002AF4D040427047C1F30A5210B505
:1087B000C1F3130140F2FF3341F480119A4201DA10
:1087C000002010BD40F233439A42A2F2334203DC50
:1087D000524200F088F810BD904010BD00F00042F9
:1087E00030F000400AD0C10D01F56071C0F31600F1
:1087F00042EA0151C2084007114370470020014678
:10880000704701F0004330B421F0004150EA01020A
:1088100006D00A0DA2F56072C1F31301002A02DC32
:1088200030BC00207047440F44EAC104C100E01886
:1088300030BC00EBC25000F041B930B50B460146E8
:1088400000202022012409E021FA02F59D4205D3EF
:1088500003FA02F5491B04FA02F52844151EA2F199
:108860000102F1DC30BD2DE9F05F054600209246A3
:108870009B4688460646814640241BE028464146E2
:108880004746224600F02FF853465A46C01A9141F7
:1088900010D311461846224600F016F82D1A67EB41
:1088A00001084F4622460120002100F00DF817EB89
:1088B00000094E41201EA4F10104DFDC4846314688
:1088C0002A464346BDE8F09F202A04DB203A00FAFE
:1088D00002F1002070479140C2F1200320FA03F317
:1088E000194390407047202A04DB203A21FA02F015
:1088F0000021704721FA02F3D040C2F120029140DA
:10890000084319467047202A06DBCB17203A41FA64
:1089100002F043EAE07306E041FA02F3D040C2F10C
:10892000200291400843194670473A2800D2303857
:1089300020F02002412A01D3A2F13700884201D35E
:108940004FF0FF3070470000026811441378016057
:1089500018467047D16004495161044911620021F1
:108960001161114600F0FEB949890008518D0008D7
:10897000426842B1016811F8013B23B1521EC0E9BF
:108980000012184670470121C160881E7047426876
:108990005AB1C368016843B983688B4205D0491E48
:1089A000521CC0E90012002070474FF0FF307047A2
:1089B0000FB4002300B589B00CA900910B996FF09A
:1089C0000042CB601E4B06931E4B07930423CDE958
:1089D00001321D4A089202466B46002000F0D8FB87
:1089E00009B05DF814FB70B586B006464FF0FF3055
:1089F0000091CDE90101002015460C460490324655
:108A0000694604A8FFF7D4FF03460498211825B14E
:108A100008B10A4600E022462A6000280DD0002B4B
:108A200002DD0098884208D0081B0094CDE90104BB
:108A30003246694604A8FFF7BBFF06B070BD0000D0
:108A4000718900088F890008518D00082DE9F047D1
:108A500091460F4680460446002614F8015B2DB16E
:108A600000F072F90068405DC007F6D12B2D02D0EE
:108A70002D2D18D0641E4A463946204600F0A4FC2D
:108A800027B13968A14201D1C7F8008071054FF0C4
:108A900002040BD54042002803DD07F0ABFE046062
:108AA000A007BDE8F08746F48066E4E70028F8DA1E
:108AB00007F0A0FE04606FF00040F2E70029A8BFB5
:108AC0007047401C490008BF20F00100704710B4F7
:108AD000B0FA80FC00FA0CF050EA010404BF10BCAC
:108AE000704749B1CCF1200421FA04F411FA0CF1D9
:108AF00018BF012121430843A3EB0C01CB1D4FEA12
:108B000000614FEA102042BF002010BC704700EB0C
:108B1000C35010440029A4BF10BC7047401C49003A
:108B200008BF20F0010010BC704710B5141E73F18F
:108B3000000408DA401C41F1000192185B411A431D
:108B400001D120F0010010BD2DE9F04D92469B4669
:108B500011B1B1FA81F202E0B0FA80F2203290460F
:108B6000FFF7B2FE04460F4640EA0A0041EA0B0155
:108B700053465A46084313D0114653EA010019D010
:108B8000C8F140025046FFF7AEFE05460E4650467D
:108B900059464246FFF798FE084305D0012004E0FD
:108BA00020463946BDE8F08D0020054346EAE076D0
:108BB0002C4337430A986305E40AA0EB080000221F
:108BC000FD0A44EA47540A3002D500200146E9E78D
:108BD000010510196941DDE9084500196941BDE841
:108BE000F04DA2E72DE9F04D81EA030404F0004BBB
:108BF00021F0004514464FF0000A23F0004150EAEE
:108C0000050220D054EA01021DD0C5F30A570246DE
:108C1000C5F31303C1F31300C1F30A5640F48015E2
:108C200043F48013A7EB0608101BD64608F2FD3864
:108C300073EB050002D308F1010801E092185B41D3
:108C4000B8F1000F03DA00200146BDE8F08D0020E6
:108C50004FF48011064684460EE0171B73EB0507A0
:108C600005D3121B63EB050306434CEA010C4908CC
:108C70004FEA300092185B4150EA0107EDD152EA09
:108C8000030012D082EA040083EA0501084305D0FC
:108C9000101BAB4106D20122002306E000224FF058
:108CA000004302E06FF0010253101AEB06004CEB98
:108CB000085110EB0A0041EB0B01BDE8F04DFFF746
:108CC00034BFC1F30A52C1F3130140F2FF3341F440
:108CD00080119A4202DA00200146704740F2334385
:108CE0009A42A2F2334202DC5242FFF7FCBDFFF788
:108CF000EBBD000030B5041E71F1000404DB4FF041
:108D00000044404264EB0101141E73F1000405DBD2
:108D10001C464FF00043524263EB0403994208BFE4
:108D2000904230BD064C074D06E0E06840F001037C
:108D300094E8070098471034AC42F6D3FFF7F6F9F1
:108D40000067010820670108004870472C66010889
:108D500010B50446FFF7F8FF0068005D00F0010061
:108D600010BD00002DE9F34F8BB04FF0000801F16A
:108D70000C000C464FF0010B46460DF1080A01901D
:108D8000626901210198904705002DD0252D2CD036
:108D9000216A8847C0B16269012101989047216A20
:108DA00088470028F7D1411E62690198904700E08A
:108DB000761CA1690B988847216A88470028F7D15B
:108DC000E1690B988847DBE7A1690B98884707465C
:108DD000A84201D1761CD3E7E1690B9888477F1C34
:108DE00002D1B8F1000F6FD046E1002762693D461D
:108DF0003946019890472A2804D1626901210198D7
:108E000090470125DFF8849262690121019890471B
:108E1000A0F130010A290AD24F45E5DC07EB8701B2
:108E200000EB4107303FDFD445F01005ECE7E906E1
:108E300001D46FF000476C280AD04C2814D0682861
:108E400015D06A280DD074281CD07A281AD01DE0BD
:108E500062690121019890476C2802D045F0040511
:108E600014E045F002050DE045F020050AE06269D6
:108E7000012101989047682802D045F0080505E0D7
:108E800045F400656269012101989047C4E90157E2
:108E900065283DD019DC58287AD00CDC452837D01D
:108EA00004DC252826D0412831D131E046282FD0B6
:108EB00047282CD12CE05B2877D0612828D0632864
:108EC0007CD0642823D15AE0D0E06F2848D008DC59
:108ED00066281DD067281BD0692821D06E2816D19E
:108EE00027E0702845D0732868D0752847D07828A7
:108EF0000DD14DE0A1690B988847054625283FF420
:108F000069AFE1690B9888476D1C3FF46AAFB3E025
:108F100023466A466FF001000B9900F039F99EE094
:108F200045F040006060A80723464FF0000236D4A9
:108F30003EE0E8077FF447AF2068011D216000682C
:108F4000290501D506701BE7290701D5068017E71B
:108F5000A90703D5F117C0E9006111E706600FE723
:108F600045F040006060A80723464FF0080216D481
:108F70001EE040F60E0125EA0100606016E045F0B3
:108F800040006060A80723464FF00A0207D40FE0B4
:108F900045F040006060A80708D5234610226FF016
:108FA00001000B99AFF3008059E007E0234610223F
:108FB0006FF001000B99FFF795F950E04FF00009B1
:108FC0004F464B46632802D05B2806D040E0E806B7
:108FD00001D40120A06001273AE0626901210198D3
:108FE00090475E2805D14FF0010962694946019812
:108FF0009047216939B900210A46534643F8212098
:10900000491C0829FADBB0B3216969B9C11700EB23
:10901000D16253110AEB830122F01F02821A012050
:109020000B68904003430B606269012101989047EF
:109030005D28E8D1B9F1000F09D00020514651F860
:109040002020D24341F82020401C0828F7DB02AB47
:10905000224600976FF001000B99AFF300800028C3
:109060000CDA401C08D1BBF1000F05D04FF0FF30E7
:109070000DB0BDE8F08FFFE74046F9E7E90701D101
:1090800008F1010806444FF0000B79E6CCCCCC0C7B
:109090002DE9FF4F087881B09946FF2805D0491C7B
:1090A0002D2804D00024002308E000230BE0012435
:1090B000F9E703EB830300EB4303491C0878FF281F
:1090C000F7D104B15B4200200090147801462D2CAA
:1090D00001D02B2C04D1521C2D2C12D00024009432
:1090E00000251678FF2E0ED00A24A0FB04C801FB31
:1090F0000481002700FB0711521C16EB0C0069418C
:10910000EFE70124EBE7994450EA01020ED0002476
:10911000AA4D2646DFF8A88200F0A5F982468B46C4
:10912000B9F1000009DAC9F100071BE0019800213C
:10913000C0E9001105B0BDE8F08F074612E0F8075E
:1091400007D022462B4630464146FFF795FA0646A1
:10915000884622462B4610461946FFF78DFA0446EC
:109160000D467F10002FEAD1B9F1000F3246434679
:109170005046594602DAFFF735FD01E0FFF77CFA69
:10918000009A0AB181F00041019AC2E90001D1E7D9
:109190002DE9FF4F1F468DB0D7E901464FF0FF384C
:1091A0002E2045464FF000090B90B9696D1C0E98B2
:1091B0008847396A824688470028F6D1BAF1FF3FCE
:1091C0000AD024F4D064002E11DDBAF12B0F08D0A0
:1091D000BAF12D0F0BD102E0404611B0ABE744F4D9
:1091E0008064B9696D1C0E9888478246761E694670
:1091F000600501D52D2000E02B208DF8000001F145
:10920000010B0DF1200809E0B9696D1C0E98884723
:1092100082460F9844F40074761E0560002E02DD2D
:10922000BAF1300FF0D00B998A453ED144F080045A
:1092300006E00F99681CA9F1010944F40074086064
:10924000B9696D1C761E0E98884782463028F0D08A
:109250002BE00B998A4505D1200603D444F0800405
:10926000761E18E0504607F097FB08B30DF1130186
:10927000761E44F400748B4508D2AAF130000BF836
:10928000010B200607D5A9F1010003E0200602D456
:1092900009F101008146A00502D50F99681C0860FC
:1092A000B9696D1C0E9888478246002ED1DC53E0C8
:1092B000002E51DDBAF1650F02D0BAF1450F4BD146
:1092C000A00549D5B9696D1C24F44074761E0E982A
:1092D00088478246002E0CDD2B2804D0BAF12D0FD2
:1092E00007D144F48074B9696D1C0E988847824692
:1092F000761EE00501D52D2100E02B2108F8011B89
:10930000CDF82C8021E00DF12901761E44F4007483
:1093100088450CD2AAF1300010F0FF0088F8000058
:1093200002D10B99884509D908F1010806E0E0054A
:1093300001D5244801E042F20F708146B9696D1CE5
:109340000E98884782460F980560002E04DD50462F
:1093500007F022FB0028D6D1F9690E988847FF2034
:109360008BF8000088F800000020069007904B461C
:109370006A4608A906A8FFF78BFEA00502D46FF085
:1093800001002AE714F0240F0AD0E00714D1DDE928
:1093900006123868031D3B600068C0E900120BE04C
:1093A000DDE90601FFF72DFA0146E00704D1386830
:1093B000021D3A600068016028460EE70000244064
:1093C0000000F03FF1D8FFFF2DE9F05F8246007802
:1093D000002715468B460AF10104B946302801D012
:1093E0009DB113E014F8010B0127782803D0582809
:1093F00001D045B10AE00DB1102D07D1002710258D
:1094000014F8010B02E0082500E00A250026B0460A
:109410000EE005FB080005FB06F1012701EB1046F5
:109420001FFA80F8B6F5803F00D3B94614F8010B57
:109430002946FFF77AFA0028EBDABBF1000F05D0D6
:109440000FB1641E00E05446CBF80040B9F1000FA4
:1094500006D007F0CFF902210160C81EBDE8F09FD9
:1094600048EA0640FAE70EB540F233420292002283
:10947000CDE900221346FFF767FB03B000BD0000F3
:10948000F8B500260446009600680168C9434906FD
:109490002AD5816841F001018160144814490068AF
:1094A000B0FBF1F000EB400000E0401E009000280F
:1094B000FBD101F0FFFA054611E000BF01F0FAFA16
:1094C000401B02280BD9E06C40F01000E064206DD6
:1094D00040F00100206584F848600120F8BD206854
:1094E0000068C0434006E9D40020F8BD38000020E1
:1094F00040420F003EB511480F4901240160002190
:1095000041608160C160016141618161C16101624D
:10951000C0E90914C0E90B141022C0E90D21C16390
:1095200000F0D0FF1520CDE9000405200290694627
:10953000024800F01FFF3EBD0024014068170020D4
:1095400070B5064615460C4600780AF0C1FCC1B25B
:10955000287801EB810202EBC101401C0B4AC0B22A
:10956000287002EB4101227831F8121081420BD2AF
:10957000012028702178491CC9B221700C2903D917
:1095800020703078401C307070BD0000E05F010832
:109590002DE9F04107461D4616460C4600680AF0C4
:1095A00097FCC1B22868401C286017281BDD0020EA
:1095B000286001EB8102306802EBC1010B4A401CBC
:1095C00002EB41013060226831F8121081420ADA60
:1095D000012131602068401C20600C2803DD2160DF
:1095E0003868401C3860BDE8F0810000E05F010889
:1095F0002DE9F04107461D4616460C46DDF8188059
:1096000000680AF065FCC1B2D8F80000401CC8F838
:1096100000003B2822DD0022C8F800202868401CFA
:10962000286017281ADD2A6001EB8102306802EBFE
:10963000C1010B4A401C02EB41013060226831F845
:10964000121081420ADA012131602068401C20603A
:109650000C2803DD21603868401C3860BDE8F081CB
:10966000E05F010870B5044603F0A2FB054604F173
:10967000180003F01FFB40EA05010F48408801284D
:1096800011D02089227BC0F38B0002F00702401C1E
:10969000921C90406279130901229A405043626300
:1096A0002063084670BD4FF400706063A068C0F38B
:1096B0009510401C4002F3E7F20000203EB5022066
:1096C0000090FF2300220D2101A803F079FD012065
:1096D000019C03F021FDFF2003F05AFD14F0FF0F61
:1096E00003D1C4F30720002800D001203EBD0000B4
:1096F00010B503F01DFD034901200870BDE81040BE
:1097000003F050BCF20000202DE9FF4F002583B08C
:109710001E468A46934601272C46A946FF23102160
:1097200001A8009503F04CFD0120DDF8048003F052
:10973000F3FCFF2003F02CFD18F0FF0F3CD158463E
:109740000AF052FC040037D0FF225946FEF76AFDAA
:109750002FE000BF1F490AEB0500498801290FD0FF
:109760005FF00101B0FBF1F2FF23112101A8CDF858
:10977000009003F025FD019810F0FF0F1CD101E0CF
:109780005946EFE7FE2003F089FDA8B903985A4631
:109790004119204603F006FD5D44FF2003F0F8FC6C
:1097A000FF2003F0F5FC012003F0B6FCFF2003F0DE
:1097B000EFFC761ECED20027012003F0ADFCFF2087
:1097C00003F0E6FC14B1204609F042FC07B038462D
:1097D000BDE8F08FF20000202DE9FF4F83B0002498
:1097E0001E468A4691460127A046FF23102101A864
:1097F000009403F0E5FC0120019D03F08DFCFF20A7
:1098000003F0C6FC15F0FF0F57D148460AF0ECFBF9
:10981000050052D04AE000BF2D490AEB04004988F8
:1098200001290FD05FF00101B0FBF1F2FF231821F5
:1098300001A8CDF8008003F0C3FC019810F0FF0FE1
:1098400037D101E04946EFE7FF2003F0A1FCFF20FC
:1098500003F09EFCFE2003F09BFC03984A46204444
:10986000294603F09FFC4C44FF2003F091FCFF20AD
:1098700003F08EFCFF2003F08BFC8346FF2003F0F7
:1098800087FC0BF01F00052813D1012003F044FCD6
:10989000002003F041FCFF2003F07AFCFF28FAD1FE
:1098A000012003F039FCFF2003F072FC761EB3D2D6
:1098B000002715B1284609F0CBFB012003F02CFC52
:1098C000FF2003F065FC07B03846BDE8F08F0000CC
:1098D000F2000020FEE7000098B04FF000083421AD
:1098E00005A8CDF85880FEF7A4FCFC4CFC4DFD48C3
:1098F0004FF0320B4FF0480A4FF03109129001211E
:1099000020690AF07DFC0028F9D000BFF3484FF031
:10991000FF3100690AF074FC0028F7D10022802191
:10992000F14801F0C2F8F14CC4F85080606800289A
:1099300070D0EB4BEE49183B4046C3F80080C3F8AB
:109940000480C3F80880C3F80C80C3F81080C3F803
:109950001480CA6B52B10222AA70012222651A60D9
:109960005A609A60DA601A615A6100E0A8704B6C24
:1099700041F28832934201DD032304E041F2941660
:10998000F34205DA04232B72236D5B1C236500E090
:1099900028728B6C934201DD032204E041F29412A1
:1099A000D34205DA04226A72226D521C226500E05D
:1099B00068720A6D5A2A01D968730CE0502A01D9DD
:1099C000062204E03C2A01D9072200E008226A733B
:1099D000226D521C2265896D5A2901D9687008E0F0
:1099E000462901D9012100E002216970216D491C3D
:1099F0002165A16C0F2905D903212971216D491C0D
:109A0000216501E02871216D29B101202870491CD0
:109A1000216503E019E0287001202065A06D58B38E
:109A2000B4A0216D06F0AEFE687B0DF1040C2B781E
:109A3000AA7969788CE80F00687A00902B7AEA7925
:109A4000A978B1A006F09EFE16E0A54808211838B6
:109A5000016041608160C16001614161A4486FF0B3
:109A60000101016241628162C162016341630120BF
:109A700028700220A8702065994E2C3E3778142F4C
:109A80001DD301D17078C0B17178A7F1140000BF67
:109A9000C0EB001001EB80004FF0AA0100FB01F0C9
:109AA00013904FF0340105A8FEF7C3FB142F0AD220
:109AB0008A4988784B78C97818E0A048F0E771782F
:109AC00007F10400E4E702D1707800287ED08448D2
:109AD000824F2A38411ECDE90010831EBA1C791C22
:109AE000F81CFFF72DFDB8787B78F978129ACDE94C
:109AF0000021CDE9023092A2322105A806F052FEE3
:109B0000A06D38B105A99AA006F03CFE9CA013995F
:109B100006F038FE132205A99E4808F0E1FA002855
:109B20007ED0A16D19B101469BA006F02BFE8DF8E9
:109B300018A08DF839B0A06D38B105A99BA006F02A
:109B400021FE9FA0139906F01DFE132205A991483E
:109B500008F0C6FA010079D0A06D10B19EA006F001
:109B600011FE41208DF818008DF83990A06D38B1A4
:109B700005A99FA006F006FEA2A0139906F002FE1A
:109B80008448AC21AC38FEF754FB8249AC3901F56E
:109B9000457008F07BFE0190C4F80480206C4746B5
:109BA00040B300224021504800F07FFF01221146BF
:109BB0009A4800F07AFF774899A1AC38FEF744FB49
:109BC0000D2181700A21C170077100E032E07149F6
:109BD00094A0AC3906F0D6FD002201218F4800F098
:109BE00064FF6C488EA1AC38FEF72EFB20218170FB
:109BF000C1700171A06D28B1664A8BA0AC3A019981
:109C000006F0C0FD122205A9624808F069FA002892
:109C100061D0A16D19B1014661A006F0B3FD00E06D
:109C200015E0FFF765FD0028A06D55D0002854D041
:109C300081A0C9E12948129A81784378C078CDE99A
:109C40000231CDE900203EA2322156E71CE1514805
:109C5000AC21AC38FEF7EDFA4E4916AB0622AC3912
:109C60004C4808F02DFB88BB4A4806221D49AC38F9
:109C7000FEF70CFB70B34748AC21AC38FEF7D9FABD
:109C80001648184B81784278CDE901211133A3F1B0
:109C90000A07CDE90373C07800903E48113B6B4A38
:109CA000AB21AC3806F07EFDC1B2A06D38B168A022
:109CB00006F068FD37496BA0AC3906F063FD354905
:109CC00016ABAA22AC39334808F082FC314807F0C1
:109CD00083FF2CE7D0E01DE174E172E13C0000203D
:109CE0003C050020F60C002000040240780500200E
:109CF000E805002073746174655F6E756D6265724E
:109D0000733D25640D0A0000795F414C413D256497
:109D10002077413D25642077423D25642077433DEF
:109D200025642073413D256420793D2564207845D4
:109D30003D2564207A3D25640D0A000040BC0300E7
:109D40002F444154412F253032752F5825735F63BE
:109D50006C6F75645F76616C756532302530326486
:109D600025303264253032645F30312E74787400CF
:109D7000706174685F66696C653D25730D0A00004B
:109D80006F66667365745F736176653D25640D0A61
:109D900000000000E4020020B5DAD2BBD0D0B5C488
:109DA000665F6F70656E3D25640D0A00D0A1CAB173
:109DB000706174685F66696C653D25730D0A00000B
:109DC000D0A1CAB16F66667365745F736176653DD5
:109DD00025640D0A00000000D0A1CAB1B5DAD2BBDB
:109DE000D0D0B5C4665F6F70656E3D25640D0A0006
:109DF000B7D6D6D3706174685F66696C653D2573AC
:109E00000D0A0000B7D6D6D36F66667365745F73AC
:109E10006176653D25640D0A0000000000000240E7
:109E20004544000025730000646174615F627566DB
:109E30003D25643A2573000073643420696E6974AB
:109E4000206661696C6564210D0A000030660108B6
:109E5000B5DAD2BBD0D0B5C4D7D6CAFD3D25640D86
:109E60000A000000B5DAD2BBD0D0B5C4C4DAC8DD70
:109E70003D25730D0A000000A06D00283FF426AFB9
:109E80009BA006F07FFC21E7AC219E48FEF7D1F9AC
:109E90009C4916AB062201F1AC0008F011FA68BB30
:109EA000062299499748FEF7F1F960B3AC2195482D
:109EB000FEF7BFF99549944B88784A78CDE901209F
:109EC0001033A3F10A07CDE90373C8780090103B63
:109ED0008F4AAB218B4806F065FCC1B2A06D30B152
:109EE0008CA006F04FFC874991A006F04BFC8549F9
:109EF00016ABAA2201F1AC0008F06AFB8148AC3035
:109F000007F06AFE2DE6A06D0028F7D08FA006F0BE
:109F100039FCF3E7A06D10B193A006F033FC79484B
:109F20001399AC3007F074FE070015D07548AC30BB
:109F300007F052FEA06D18B139468FA006F022FC42
:109F4000FFF7D6FB0028A06D03D000283ED08FA0DD
:109F50003AE0B0B392A037E0A06D18B1394694A0B2
:109F600006F010FC674916ABAA2201F1AC0008F01C
:109F70002FFB070014D06348AC3007F02DFEA06D16
:109F800018B139468FA006F0FDFBFFF7B1FB0028A2
:109F9000A06D02D0A8B190A016E090B193A013E0FC
:109FA000A06D18B1574995A006F0ECFB5548AC30B0
:109FB00007F012FE28B9A16D19B1014693A006F071
:109FC000E1FB03E010B196A006F0DCFB70780028FE
:109FD0007CD14C48362100F8259F4170302181709A
:109FE0008DF818A08DF83AB036784FF0AA00142EEC
:109FF00001D3133E00E0761D46434248122205A9D4
:10A00000AC3008F06DF848B1FFF772FB0028A06D86
:10A010005DD000285FD0AFF2E0105AE0A06D10B123
:10A0200051A006F0AFFB37483146AC3007F0F0FDE9
:10A03000060014D03348AC3007F0CEFDA06D18B147
:10A0400031464DA006F09EFBFFF752FB0028A06DA5
:10A0500002D0D8B34DA03CE0C0B351A039E0A06D10
:10A0600018B1314652A006F08DFB264916ABAA2244
:10A0700001F1AC0008F0ACFA060016D02148AC3073
:10A0800007F0AAFDA06D18B131464EA006F07AFB8C
:10A09000FFF72EFB0028A06D02D060B14EA001E0BA
:10A0A00048B152A006F06EFB05E0A06D18B115494D
:10A0B00052A006F067FB1348AC3007F08DFD28B9BD
:10A0C000A16D19B1014651A006F05CFB03E010B18F
:10A0D00053A006F057FB564C01228021204600F089
:10A0E000E4FC01224021204600F0DFFC0EE40000E9
:10A0F000B5DAD2BBD0D0D2D1BEADD3D0C1CB0D0A50
:10A100000000000038020020F60C00203C00002077
:10A1100030660108D0A1CAB1CEC4BCFEB5DAD2BB4C
:10A12000D0D0B5C4D7D6CAFD3D25640D0A000000C5
:10A13000D0A1CAB1CEC4BCFEB5DAD2BBD0D0B5C4B2
:10A14000C4DAC8DD3D25730D0A000000D0A1CAB1F4
:10A15000CEC4BCFEB5C4B5DAD2BBD0D0D2D1BEAD70
:10A16000D3D0C1CB0D0A0000B4F2BFAACEC4BCFE4E
:10A17000B3C9B9A60D0A0000CEC4BCFED1A1D6B7A2
:10A18000B4EDCEF33A25640D0A0000007364206933
:10A190006E6974206661696C6564210D0A000000B7
:10A1A00073643120696E6974206F6B210D0A0000A1
:10A1B000CEC4BCFED1A1D6B7B3C9B9A63A25640DA9
:10A1C0000A000000D0B4CAFDBEDDCAA7B0DCA3BA45
:10A1D00025640D0A0000000073643220696E697402
:10A1E000206661696C6564210D0A00007364332088
:10A1F000696E6974206F6B210D0A0000D0B4CAFD2E
:10A20000BEDDB3C9B9A63A2573000000B9D8B1D5EF
:10A21000CEC4BCFEB3C9B9A63A25640D0A0000003D
:10A2200073643520696E6974206F6B210D0A00001C
:10A23000000402407047000005464FF47A74294636
:10A2400004A006F09FFA204600F0D0FA00F0D6FCF9
:10A25000F5E700004572726F723A25730000000046
:10A26000002200F001B8000030B50E4B0546012079
:10A270005C7A012C15D8587A00241C54587A03EBC8
:10A28000800045605D7A03F108002A54587A421C28
:10A290005A72303008703A2048702F208870CC7085
:10A2A000002030BD64540020184A00211068C30506
:10A2B000174804D5416941F00201416191151368C5
:10A2C0009B0505D5436943F00103436141F40071E7
:10A2D00013681B0505D5436943F00403436141F44A
:10A2E000006113689B0405D5436943F01003436183
:10A2F00041F400511368DB0405D5436943F02003A2
:10A30000436141F48051116070470000183C0240E5
:10A31000BC17002070B5054600F0CCFB0646144C77
:10A3200009E0681C07D025B100F0C4FB801BA842DF
:10A3300001D9032070BD2068C007F2D120688007D2
:10A3400001D5022020602068C0050BD420680005DC
:10A3500008D42068800405D42068C00402D4206892
:10A36000800503D5FFF7A0FF012070BD002070BD60
:10A37000183C0240F8B50024009490F84820254687
:10A38000012A12D0012280F848204A681F23072A98
:10A390000DD20668376C521E02EB820293409F4337
:10A3A0000B6893401F43376435E00220F8BD0D2A47
:10A3B0000BD20768FE6BD21F02EB820293409E43D2
:10A3C0000B6893401E43FE6325E0132A0BD20668F8
:10A3D000B76B0D3A02EB820293409F430B689340A8
:10A3E0001F43B76317E00668192A0AD2776B133A3E
:10A3F00002EB820293409F430B6893401F437763B5
:10A4000009E0376B193A02EB820293409F430B68D5
:10A4100093401F4337630A6807230A2A0AD2066853
:10A42000776902EB420293409F438B6893401F433E
:10A4300077611CE0142A0BD207683E690A3A02EBE6
:10A44000420293409E438B6893401E433E610EE060
:10A450001A2A0BD80768FE68143A02EB42029340AE
:10A460009E438B6893401E43FE6000E000BF0A6875
:10A47000102A01D0112A17D10D4A13681B0213D4D8
:10A48000136843F400031360096810290CD10949CB
:10A49000094A0968B1FBF2F101EB8101490000E0D2
:10A4A000491E00910029FBD180F848502046F8BD94
:10A4B000042701403800002040420F000068806DF2
:10A4C00070470000F8B504004FF0000503D0E06CC1
:10A4D000002610B110E00120F8BD26655B4884F825
:10A4E0004860016841F001010160006800F001006E
:10A4F0000090204600F0B4F8E06CC00678D4E06C20
:10A5000020F4885040F00200E0645148016862681D
:10A5100021F44031114301606169E0684FF4007338
:10A52000084393FAA3F3E26BB3FA83F3216A9A40E8
:10A5300011430843022191FAA1F1626AB1FA81F153
:10A5400002FA01F10843616B102902D0A36B194391
:10A550000843236819684FF48077C943490629D511
:10A56000A169D4F81CC00843A168D4F810E041EAFE
:10A570000C01BE450CD0BEF1010F09D04FF0000C0C
:10A5800041EA0C01D4F82CC0BCF1010F02D00AE062
:10A59000BC46F5E76AB3E26C42F02002E264226D49
:10A5A00042F0010222655A68DFF8A8C002EA0C02F4
:10A5B0000A435A6021688A68274B1A4002438A601E
:10A5C0002169B94224D0012922D021680A6B22F0E6
:10A5D000F8720A6321688968204A1140814227D1B4
:10A5E0002665E06C20F0020040F00100E0642AE003
:10A5F00028E0FFE74FF4604C226B9CFAACFCBCFAFD
:10A600008CFC521E02FA0CF20A4342F40061CAE7C3
:10A6100021680A6B4FF0F87722F0F873A26A97FA74
:10A62000A7F7B7FA87F7521EBA4013430B63D1E777
:10A63000E06C20F0020040F01000E064206D40F07B
:10A640000100206501252846F8BD000020380240A1
:10A6500004270140FF16FCFC89F1FFC0FEFF80BF0C
:10A6600000B50068174993B0884229D1164801689F
:10A6700041F002010160006800F0020012901248EF
:10A68000001D016841F400710160006800F4007071
:10A690001290684600F0A2FC022000901020049066
:10A6A00001200390684600F077FD4FF400400D90C4
:10A6B00003200E9000200F900DA9044800F02AF905
:10A6C00013B000BD002401401C38024000040240C9
:10A6D0002DE9F041044600680D4681684FF00007FF
:10A6E00049050BD58068C00508D5E06C40F0200016
:10A6F000E06484F848700120BDE8F08100F0DAF9E8
:10A7000006460FE0681C0DD025B100F0D3F9801B80
:10A71000A84207D9E06C40F00400E06484F8487077
:10A720000320E9E7206800688007EBD5A06918B925
:10A7300021686FF012000860E06C40F40070E06483
:10A740002068816811F0405F13D1616A89B9016B9B
:10A7500011F0F87F02D0806840050AD4E06C20F444
:10A760008070E064E06CC00403D4E06C40F0010051
:10A77000E0640020C0E710B5044690F848000128C6
:10A7800022D0012084F848002046FEF779FE0028F8
:10A790001BD1E16C40F20162914341F48071E164AC
:10A7A00021684A68520505D5E26C22F4005242F451
:10A7B0008052E264E26CD3044FF0000206D5236DB0
:10A7C00023F00603236502E0022010BD226584F811
:10A7D00048206FF022020A6021688A6812F0405F08
:10A7E000F3D18A6842F080428A6010BD31B500F032
:10A7F00061F9044600F05EF90099001B8842F9D324
:10A8000038BD00000348016841F0010101600020EB
:10A8100070470000043C02402DE9F04706463148ED
:10A820000C461546017C01290BD00121814601749B
:10A830004CF250373846FFF76DFD4FF0000A18B163
:10A840004DE00220BDE8F087C9F814A0DFF8988039
:10A85000042E09D0082E13D0102E1DD0022E26D083
:10A86000012E2AD086B33AE0EDB23846FFF752FD0A
:10A8700058BBD8F8001021F48071C8F800102AE005
:10A88000ADB23846FFF746FDF8B9D8F8001021F40C
:10A890008071C8F8001015E03846FFF73BFDA0B9FD
:10A8A000D8F8001021F48071C8F8001003E0384691
:10A8B000FFF730FD48B925600EE0ADB23846FFF72E
:10A8C00029FD10B9258007E000E008E0EDB2384628
:10A8D000FFF720FD18B925703846FFF71BFD89F8F2
:10A8E00010A0AFE7BC170020043C024006480068F7
:10A8F000C00707D0044805490830016004490160D9
:10A900000020704701207047043C0240EFCDAB8926
:10A91000050403022DE9F84FDFF864B100234FF07E
:10A92000010C4FF0030A4FF00F090BF1040EA0E0E9
:10A930000CFA03F6324072D04C68022C01D0122C73
:10A940000ED1DC0800EB8408D8F820405D07EF0E3C
:10A9500009FA07F5AC430D69BD402543C8F82050FE
:10A9600007685D0091F804800AFA05F408F003080E
:10A97000A74308FA05F848EA0708C0F800804F68BE
:10A98000012F05D0022F03D0112F01D0122F11D18A
:10A990008768D1F80C80A74308FA05F848EA070849
:10A9A000C0F808804768B7430E79C6F300169E408A
:10A9B0003E434660C668A6438C68AC403443C460DE
:10A9C0004C68E40054D52F4C256845F001052560FE
:10A9D000246823F0030504F0010400942A4C254464
:10A9E000AF689C07240F09FA04F6B743274EB0421C
:10A9F00001D1002615E0264EB04201D1012610E01B
:10AA0000244EB04201D102260BE0234EB04201D1C8
:10AA1000032606E0214EB04202D1042601E027E0E1
:10AA20000526A6403E43AE60DBF800405D464E681A
:10AA30009443F60300D514432C60DEF800407546BD
:10AA40004E689443B60300D514432C600C4D083572
:10AA50002C684E689443F60200D514432C60084DD0
:10AA60000C352C684E689443B60200D514432C6014
:10AA70005B1C0A6832FA03F47FF45AAFBDE8F88F22
:10AA80000004014020380240000001400000024064
:10AA90000004024000080240000C02400010024086
:10AAA0000069084000D0012070470AB181617047F9
:10AAB0000904FBE70148006870470000B40000206B
:10AAC00070B5040011D021684CF6CC4008602168B4
:10AAD00045F255500860D4E9000141602168A06842
:10AAE0008860FFF7E7FF054609E0012070BD00BF61
:10AAF000FFF7E0FF401B302801D9032070BD20681C
:10AB0000C0680028F4D121684AF6AA200860002015
:10AB100070BD00684AF6AA2101600020704700005D
:10AB200002480168491C016070470000B400002021
:10AB3000094810B5016841F004010160016841F065
:10AB400002010160032000F047F80F2000F006F832
:10AB500000F015F8002010BD003C024010B504467E
:10AB600000F036FA4FF47A71B0FBF1F001F069FBB6
:10AB700000222146501E00F00FF8002010BD704743
:10AB800000F01F02012191404009800000F1E02007
:10AB9000C0F8001170470000F0B40E4B1B680C4663
:10ABA000C3F30223C3F10705042D00D90425191DA1
:10ABB000072901D2002300E0DB1E012606FA05F179
:10ABC000491E214099409E40761E16403143F0BCFC
:10ABD00001F0BABE0CED00E0064900F0070208687B
:10ABE0004FF6FF03184040EA0220034A1043086072
:10ABF000704700000CED00E00000FA05BFF34F8F36
:10AC000004480168044A01F4E06111430160BFF3A4
:10AC10004F8FFEE70CED00E00400FA0502480068E3
:10AC200000F4C05070470000007000400120010295
:10AC300091FAA1F1024AB1FA81F142F8210070477C
:10AC400000000E42094A136823F003030343136014
:10AC50000748026822F004020260012903D040BFC5
:10AC600020BF20BF704730BF704700000070004019
:10AC700010ED00E02DE9F84F04460068C10701D14E
:10AC8000800778D5DFF868810027D8F80000C00079
:10AC90000BD4D8F8001041F08051C8F80010D8F853
:10ACA0000000012700F080500090524D2868C00538
:10ACB00010D4286840F480702860FFF7FBFE064639
:10ACC00005E000BFFFF7F6FE801B64285CD828680B
:10ACD000C005F7D5464E243E3068616800F0C0409C
:10ACE00001F0C042824204D1A26802F0C042824216
:10ACF00009D0C1F30140032805D13068800302D593
:10AD00000120BDE8F88F3A4D1035286810F4403026
:10AD100052D001F44031814202D02178C90707D1D5
:10AD2000A16801F44031814246D02078800743D5A4
:10AD300028684FF4000292FAA2F1B1FA81F14FEAC9
:10AD4000810C2D494FF0010A8C4420F44030CCF89E
:10AD500080A692FAA2F2B2FA82F201EB82010023FB
:10AD6000C1F880362860C00526D5FFF7A3FE8146CE
:10AD70004FF4007B0AE038E0FFF79CFEA0EB0901EE
:10AD800041F28830814201D90320BAE79BFAABF047
:10AD9000B0FA80F040F04001BAEB511F01D13168A8
:10ADA00000E029689BFAABF2B2FA82F202F01F02CD
:10ADB0000AFA02F00142DFD06068C0F301410329C2
:10ADC00006D1316800F0C04021F0C041014331603C
:10ADD0002868616801F44031084328602FB1D8F831
:10ADE000001021F08051C8F80010002089E7000011
:10ADF0002438024000700040000047422DE9F0472F
:10AE0000DFF8BC8105460E46D8F8000000F00100CE
:10AE1000B04214D2012E05D1D8F8001041F004013F
:10AE2000C8F80010D8F8001021F001013143C8F82B
:10AE30000010D8F8000000F00100B04271D128786D
:10AE4000604C800705D52068A96820F0F000084311
:10AE500020602878C00771D05A4A5A4B696801208F
:10AE6000083A2C33022910D003292ED001292FD0E3
:10AE70005FEA402797FAA7FCBCFA8CFC4CF0200C48
:10AE80005FEA5C1C04D0126803E04FF40037F1E77E
:10AE90001A6897FAA7F3B3FA83F303F01F039840F5
:10AEA000024262D0206820F0030008432060FFF7D0
:10AEB00001FE6968074641F28830022910D0032953
:10AEC0001CD00129814626D034E04FF00077D1E72D
:10AED0000227CFE7FFF7EEFDC11B494501D926E068
:10AEE00081462068C0F381000228F3D126E000BF2C
:10AEF000FFF7E0FDC11B494501D918E081462068F4
:10AF0000C0F381000328F3D118E000BFFFF7D2FDA2
:10AF1000C11B49450BD82068C0F381000128F5D139
:10AF20000CE022E0FFF7C6FDC11B494502D9032012
:10AF3000BDE8F087206810F00C0FF3D1D8F80010AE
:10AF4000404601F00101B14211D9012E03D101683F
:10AF500041F004010160016821F001013143016009
:10AF6000006800F00100B04201D00120E0E728783D
:10AF7000400705D52068E96820F4E06008432060B8
:10AF80002878000706D52068296920F4605040EA37
:10AF9000C100206000F0BAF82168F02292FAA2F213
:10AFA00001F0F001B2FA82F2D140074A515CC84088
:10AFB000064908600F20FFF7D1FD0020B8E7000028
:10AFC000003C0240083802400D5F010838000020B4
:10AFD000014800687047000038000020F0B51F21CC
:10AFE000016031490A684FF0050554034FF0000332
:10AFF0004FF0010201D5456005E00C68E40301D57E
:10B00000426000E043600C68E40701D0C26000E0E9
:10B01000C360254C241D26684FF4F85797FAA7F70C
:10B0200006F4F856B7FA87F7FE4006610E68F60593
:10B0300001D5826100E0836126684FF07F4797FA6F
:10B04000A7F706F07F46B7FA87F7FE40C661246887
:10B0500004F460440462144C34342668760501D547
:10B06000856005E02568ED0501D5826000E083601C
:10B070002468E40701D0426100E043610968C90126
:10B0800002D50221416200E04262074908310A68A4
:10B0900002F4803282620A6802F47012C2620968A5
:10B0A00001F440010163F0BD00380240084809493D
:10B0B000006809684FF4E06292FAA2F201F4E061DC
:10B0C000B2FA82F2D140044A515CC8407047000095
:10B0D00038000020083802401D5F0108084809496F
:10B0E000006809684FF4605292FAA2F201F46051CC
:10B0F000B2FA82F2D140044A515CC8407047000065
:10B1000038000020083802401D5F01081E4A1168FF
:10B1100001F00C00042813D0082813D00C2813D0F9
:10B12000101F006800F460414FF4604090FAA0F0F6
:10B13000B0FA80F0C1404FF40040491C884070478D
:10B1400012487047124870474FF4701393FAA3F3F4
:10B1500001F47010B3FA83F3D8400E4B01F44001B0
:10B160001268185C4FF4400393FAA3F3B3FA83F325
:10B17000D940491CD20301D5054A00E0034A504397
:10B18000B0FBF1F070470000083802400024F400E2
:10B19000001BB700045F01082DE9F84F074600784F
:10B1A000FB4EFC4DC0074FF0010428D0F848083092
:10B1B00001684FF40038C1F38101022907D001680A
:10B1C000C1F3810103291BD10068C00318D598FA87
:10B1D000A8F0B0FA80F040F02000400901D03068BB
:10B1E00000E0286898FAA8F1B1FA81F101F01F0196
:10B1F00004FA01F108425CD0786800287BD058E05E
:10B20000786801280AD008B1052811D0306820F4E8
:10B2100080303060306820F4802002E0306840F4F4
:10B2200080303060786828B3FFF744FC81460BE03B
:10B23000306840F480203060F0E700BFFFF73AFC50
:10B24000A0EB0900642872D898FAA8F0B0FA80F050
:10B2500040F02000400901D0306800E0286898FAEA
:10B26000A8F1B1FA81F101F01F0104FA01F10842DD
:10B27000E4D01EE0FFF71EFC814605E0FFF71AFC54
:10B28000A0EB09006428DED898FAA8F0B0FA80F0A4
:10B2900040F02000400901D0306800E0286898FAAA
:10B2A000A8F1B1FA81F101F01F0104FA01F108429D
:10B2B000E4D13878DFF8E08280074FF0000B4FF0E0
:10B2C00002095FD5B24808300168C1F38101012944
:10B2D00007D00168C1F3810103291CD10068C003B4
:10B2E00019D499FAA9F0B0FA80F040F02000400992
:10B2F00002D0306801E086E0286899FAA9F1B1FA35
:10B3000081F101F01F0104FA01F108422BD0F86825
:10B31000012878D127E0F868A8B394FAA4F0B0FA2D
:10B3200080F048F82040FFF7C5FB824606E066E162
:10B33000FFF7C0FBA0EB0A00022884D899FAA9F114
:10B34000B1FA81F141F02001490901D0316800E0F2
:10B35000296899FAA9F0B0FA80F000F01F0004FA09
:10B3600000F00142E4D08A48001D01684FF4F85310
:10B3700093FAA3F33A69B3FA83F321F4F8519A40AC
:10B380001143016025E0FFE794FAA4F1B1FA81F1DD
:10B3900048F821B0FFF78EFB824605E0FFF78AFBF5
:10B3A000A0EB0A000228C8D899FAA9F0B0FA80F0F8
:10B3B00040F02000400901D0306800E0286899FA88
:10B3C000A9F1B1FA81F101F01F0104FA01F108427B
:10B3D000E4D138784FF4007AC0067CD56C48083048
:10B3E000006810F00C0F0FD0B9694FF4807000297D
:10B3F00072D090FAA0F0B0FA80F048F82040FFF741
:10B4000059FB00907EE087E09AFAAAF0B0FA80F04B
:10B4100040F02000400901D0306800E028689AFA26
:10B42000AAF1B1FA81F101F01F0104FA01F1084219
:10B4300002D0B86900286FD05548396A001D0068ED
:10B4400000F4604081421AD9084601F083FB0028CD
:10B4500062D14F48001D01683A6A21F460411143EE
:10B46000016001684FF07F4393FAA3F3FA69B3FADE
:10B4700083F321F07F419A401143016018E0444872
:10B48000001D026822F460420A43026001684FF026
:10B490007F4393FAA3F3FA69B3FA83F321F07F4170
:10B4A0009A4011430160386A01F054FB0028CFD163
:10B4B0004FF4604191FAA1F1386AB1FA81F1C840C4
:10B4C0004FF40041401C8140314808300068F022B0
:10B4D00000F0F00001E070E040E092FAA2F2B2FA6F
:10B4E00082F2D0402D4A105CC1402D4801600F20EF
:10B4F000FFF734FB61E000BFFFF7DCFA0099401A68
:10B5000002287CD89AFAAAF0B0FA80F040F0200025
:10B51000400902D0306801E0BCE128689AFAAAF13B
:10B52000B1FA81F101F01F0104FA01F10842E3D000
:10B530001748001D01683A6A21F460411143016017
:10B5400001684FF07F4393FAA3F3FA69B3FA83F3E8
:10B5500021F07F419A40114301602EE090FAA0F063
:10B56000B0FA80F048F820B0FFF7A4FA009005E0A8
:10B57000FFF7A0FA0099401A0228C2D89AFAAAF056
:10B58000B0FA80F040F0200040090BD030680AE0AB
:10B590000038024034380240000047420D5F010885
:10B5A0003800002028689AFAAAF1B1FA81F101F076
:10B5B0001F0104FA01F10842DAD13878000753D5A7
:10B5C000786948B394FAA4F0B0FA80F008EB8000F0
:10B5D000C0F88046FFF76EFA009005E0FFF76AFAC0
:10B5E0000099401A02288CD899FAA9F0B0FA80F094
:10B5F00040F04000B4EB501F02D1306801E08EE013
:10B60000286899FAA9F1B1FA81F101F01F0104FA51
:10B6100001F21042E2D027E094FAA4F1B1FA81F1EC
:10B6200008EB8101C1F880B6FFF744FA009005E00D
:10B63000FFF740FA0099401A022870D899FAA9F049
:10B64000B0FA80F040F04000B4EB501F01D13068F8
:10B6500000E0286899FAA9F1B1FA81F101F01F011F
:10B6600004FA01F21042E3D1387840077BD59B48B9
:10B670004FF000090068C0000AD49848016841F002
:10B680008051016000684FF0010900F08050009087
:10B6900093480168C90511D4016841F480710160C3
:10B6A000FFF708FA009005E0FFF704FA0099401A46
:10B6B000642834D88A480068C005F5D5B8680128E0
:10B6C0000AD008B1052811D0286820F480702860BD
:10B6D000286820F4806002E0286840F480702860C8
:10B6E000B86848B3FFF7E6F900900DE0286840F429
:10B6F00080602860F0E700BFFFF7DCF90099411A8D
:10B7000041F2883081420AD89AFAAAF0B0FA80F061
:10B7100040F04000B4EB501F02D1306801E095E0EA
:10B7200028689AFAAAF1B1FA81F101F01F0104FA2E
:10B7300001F21042E0D022E0FFF7BCF9009007E0F0
:10B74000FFF7B8F90099411A41F2883081427DD85B
:10B750009AFAAAF0B0FA80F040F04000B4EB501F23
:10B7600002D1306801E012E028689AFAAAF1B1FA31
:10B7700081F101F01F0104FA01F21042E0D1B9F1A8
:10B78000000F04D05548016821F080510160786AAB
:10B79000E8B3DFF84891A9F11C09D9F80010C1F30A
:10B7A0008101032976D002284FF080714FF0007A92
:10B7B00058460BD091FAA1F1B1FA81F148F8210075
:10B7C000FFF778F9B046074656466DE04FF08071B6
:10B7D00091FAA1F1B1FA81F18A0042495050FFF784
:10B7E00069F9B3468046564606E000BFFFF762F9A6
:10B7F000A0EB0800022854D896FAA6F0B0FA80F020
:10B8000040F02000400903D0DBF8000001E061E0D7
:10B81000286896FAA6F1B1FA81F101F01F0104FA45
:10B8200001F10842E2D1D7E90A103A6BD9F80030A9
:10B83000014323F47D031A431143C9F800104FF06C
:10B84000807090FAA0F0B0FA80F000E029E081006A
:10B8500024480C50FFF72EF9074604E0FFF72AF9B9
:10B86000C01B02281DD896FAA6F0B0FA80F040F06E
:10B870002000400902D0DBF8000000E0286896FABA
:10B88000A6F1B1FA81F101F01F0104FA01F10842B9
:10B89000E4D01FE020E000BFFFF70CF9C01B022836
:10B8A00002D90320BDE8F88F96FAA6F0B0FA80F02E
:10B8B00040F02000400902D0D8F8000000E02868DD
:10B8C00096FAA6F1B1FA81F101F01F0104FA01F133
:10B8D0000842E1D10020E5E70120E3E724380240F7
:10B8E0000070004000004742704700000348C068F5
:10B8F000002801D008F060BC704700003C00002028
:10B9000010B5044600688168C9040CD5C068C0053C
:10B9100009D52046FFF7EAFF2068C16801F08001E1
:10B9200061F4C071C1602068816889040CD5C06869
:10B93000800509D52046FFF7D7FF2068C16801F0D0
:10B94000800161F42071C16003494FF40030086048
:10B950000120607710BD00001404014010B500689C
:10B960000B4641680D480140080CD870C1F304240F
:10B970005C7001F03F049C70C1F34231197052B900
:10B9800001F02AF9D870587801F026F958709878A3
:10B9900001F022F99870002010BD00003FFFFF0069
:10B9A00010B50C460168896A89B26160016809694D
:10B9B000C1F30E01A160006801680E480140C1F3A7
:10B9C00005402070C1F30623637001F07F03A3706C
:10B9D000402303EA1141E17052B901F0FDF82070F3
:10B9E000607801F0F9F86070A07801F0F5F8A070C7
:10B9F000002010BD7F7F7F0070B5040002D0607F03
:10BA000010B106E0012070BD00202077204600F034
:10BA100041F8022060772168CA20486221685320DB
:10BA20004862204601F0ECF8FF210028206803D08E
:10BA3000416204206077E5E78268154B1A40826016
:10BA40002268906863681843D4E904352B4318438F
:10BA500090602268E068106120680269238942EAE8
:10BA6000034202612068C26822F08002C26020683E
:10BA7000026C22F4802202642068026CA3691A43DB
:10BA800002642068416201206077002070BD0000E0
:10BA9000BFFF8FFF10B500681E4992B0884236D1B3
:10BAA0001D48016841F080510160006800F080503D
:10BAB0001090FFF7BBF80C200090002001240990A3
:10BAC000029405946846FFF767FB10B113A0FEF7D8
:10BAD000B3FB4FF48030CDE90D400DA8FFF7CAF855
:10BAE00010B113A0FEF7A8FB4FF4800090FAA0F06D
:10BAF0001849B0FA80F001EB8000C0F880460022BF
:10BB00000A212920FFF748F82920FFF739F812B059
:10BB100010BD000000280040243802404F736343EA
:10BB20006F6E666967206661696C65640D0A000066
:10BB300052544320636C6F636B20736F757263653F
:10BB400020636F6E666967206661696C65640D0AC3
:10BB500000000000000047422DE9F05F0446007F2E
:10BB60000D46012848D00120207702206077206808
:10BB7000002780684FEA4060EAB3002859DA287845
:10BB800001F02AF895F8200001F026F8A878297825
:10BB9000EA7840EA01406978090241EA0241084333
:10BBA00095F8201040EA0166E869A96906436869CA
:10BBB0000643686840EA01082168CA204862216893
:10BBC00053204862686AFF25B0F5807F20684FF0F7
:10BBD000030B4FF47A7A81682DD021F400718160D3
:10BBE0002068C16801F0800161F42071C160FEF736
:10BBF00061FF814655E002E00220BDE8F09F002889
:10BC000000DBEF70287800F0F0FF0604687800F0A1
:10BC1000ECFF46EA0026A87800F0E7FF0643E87844
:10BC200046EA004695F8200000F0DFFF46EA00668D
:10BC3000BAE7EF70A6E721F4807181602068C168DF
:10BC400001F0800161F4C071C160FEF733FF8146ED
:10BC500006E000BFFEF72EFFA0EB0900504519D803
:10BC60002068C068C007F5D02068C6612168C1F8A7
:10BC700044802068816841F4807181602068816817
:10BC800041F480511FE000BFFEF714FFA0EB090054
:10BC9000504506D92068456284F81DB027770320F7
:10BCA000ABE72068C0688007EED52068066221688F
:10BCB000C1F848802068816841F400718160206883
:10BCC000816841F4005181600848016841F4003105
:10BCD000016006480830016841F4003101602068C5
:10BCE0004562012060772777002086E70004014045
:10BCF0002DE9F0470446007F0B46012825D04FF080
:10BD0000010984F81C9002206077587802B300F093
:10BD100063FF987800F060FF9878D97840EA014591
:10BD200058781978000240EA413005432168CA205A
:10BD30004862216853204862204600F061FF0026D7
:10BD4000FF274FF0040838BB19E00220BDE8F08758
:10BD5000C10603D500F0EF000A305870D87800F023
:10BD600044FF0204587800F040FF42EA002298782D
:10BD700000F03BFF0243187842EA4035D6E70D4811
:10BD80000540206845602068C16821F08001C160DD
:10BD9000204600F085F830B12068476284F81D80A5
:10BDA00026770120D2E72068476284F81D90267725
:10BDB0000020CBE73FFFFF002DE9F0470446007F5E
:10BDC0000D46012811D04FF0010A84F81CA0022072
:10BDD00060772068002680684FEA406042B1002802
:10BDE0001ADA287800F0F8FE17E00220BDE8F087A4
:10BDF000002800DBEE70287800F0F7FE0204687877
:10BE000000F0F3FE42EA0022A87800F0EEFE0243C2
:10BE1000E87842EA00470AE0EE70A878297840EA1C
:10BE200001476878E978000240EA01400743216849
:10BE3000CA204862216853204862204600F0E0FE94
:10BE40004FF0FF084FF00409C0B9144807402068BC
:10BE500007602068816821F480218160D5E90301B1
:10BE6000084321688A68104388602068C16821F00F
:10BE70008001C160204600F013F838B12168C1F894
:10BE8000248084F81D9026770120AFE72168C1F84F
:10BE9000248084F81DA026770020A7E77F7F7F00FD
:10BEA00070B5044600688168890614D4C16821F021
:10BEB000A001C160FEF7FEFD05464FF47A7606E06C
:10BEC000FEF7F8FD401BB04201D9032070BD206889
:10BED000C0688006F4D5002070BD10B504000ED0F7
:10BEE0002068016821F040010160204600F04EF812
:10BEF0000020606584F8510084F8500010BD0120D6
:10BF000010BD90F85100704770B5040004D094F84B
:10BF10005100002510B106E0012070BD84F850509A
:10BF2000204600F034F8022084F8510020680168AF
:10BF300021F040010160D4E901010843D4E9031272
:10BF40001143084361690843218B01F400710843E0
:10BF5000E1690843216A0843A16A0843216808602F
:10BF6000A069042101EA1040616A08432168486021
:10BF70002168E06A08612068C16921F40061C1613B
:10BF80006565012084F85100002070BD704770473E
:10BF90002DE9F8430025DDF820800446ADF8005077
:10BFA00090F85100012803D094F8510022287DD147
:10BFB00069B162B15BB194F85000012876D00126D6
:10BFC00084F8506094F85100012803D005E0012066
:10BFD000BDE8F883322084F851006565A263A38729
:10BFE000E3872163A386E386A564E564A06A4FF432
:10BFF0000057B84209D12068016821F4005101605E
:10C000002068016841F40051016020680168490618
:10C0100003D4016841F040010160E0684FF482718F
:10C02000B0F5006F606807D0002867D088426ED1F5
:10C03000E08E012862D06AE020B188420CD1E08E07
:10C04000012809D1206B21680088C860206B801C02
:10C050002063E08E401EE086E08E40BBA06AB842BE
:10C0600044D12068016841F4805101603EE02068BD
:10C07000C068A16B0880A06B801CA0639EE0434653
:10C0800000220221204601F079F9002874D1206BAA
:10C0900021680088C860206B801C2063E08E401EF1
:10C0A000E086E08E50B9A06AB84201E0C7E017E030
:10C0B00004D12068016841F48051016043460022A8
:10C0C0000121204601F05AF900286FD12068C0688C
:10C0D000A16B0880A06B801CA063E08F401EE087EE
:10C0E000E08E0028CBD1606800286AD14346002248
:10C0F0000121204601F042F9F0BBB8E7206B411C5A
:10C10000216321680078C860E08E401EE086E08EE2
:10C1100098BBA06AB84204D12068016841F48051FC
:10C120000160434600220121204601F027F918BB97
:10C130002068C068A16B087040E0434600220221DD
:10C14000204601F01BF9B8B9206B411C216321681E
:10C150000078C860E08E401EE086E08E38B9A06AA4
:10C16000B84204D12068016841F480510160002286
:10C1700043460121204601E018E00BE001F0FEF803
:10C18000A0B92068C268A06B411CA1630270E08F57
:10C19000401EE087E08E0028CFD1606888B9434612
:10C1A00000220121204601F0E9F808B103200FE741
:10C1B0002068C168A06B421CA2630170E08F401E22
:10C1C000E087A06AB84210D14346002201212046F0
:10C1D00001F0D4F818B1606D40F002000FE0206863
:10C1E000C068ADF80000BDF8000043460122802180
:10C1F000204601F0C3F820B1606D40F0200060657A
:10C20000D4E784F85160A06AB84214D120688168EC
:10C21000C943C9060FD4616D41F00201616501682F
:10C2200021F4005101602068016841F4005101606F
:10C2300084F85050CBE684F850500020C8E6022025
:10C24000C6E610B5401EB0F1807F01D3012010BDBD
:10C250004FF0E02460610F21601700F075FB0020B3
:10C26000A06107202061002010BD704770B5040058
:10C2700004D094F83900002510B106E0012070BD0B
:10C2800084F83850204600F021F8022084F8390064
:10C290002068C16821F40051C160204601F006FC0D
:10C2A0002068016921F4904101612068416921F011
:10C2B0002A0141612068C16841F40051C160E56311
:10C2C000012084F83900002070BD0000F0B5424A1A
:10C2D000076842490223012403250726404887B006
:10C2E000974223D10A1D176847F4804717601268E8
:10C2F00002F4804205920A6842F001020A6009686D
:10C3000001F00101059169028DE87A006946FEF7A6
:10C3100001FB34480068C16841F02001C16000227F
:10C320000E212520FEF738FC252028E02B4ADFF8D7
:10C33000B8C00832674526D1176847F40037176040
:10C34000126802F4003205920A6842F001020A60A3
:10C35000096801F0010105910C218DE87A00694618
:10C36000FEF7D8FA1F4840300068C16841F020014C
:10C37000C16000220E212620FEF70EFC2620FEF7CB
:10C38000FFFB07B0F0BD19488742FAD1106840F4AE
:10C3900080201060106800F480200590086840F04C
:10C3A000040008600868694600F0040005904FF436
:10C3B00040608DE879000E48FEF7ACFA09488030FD
:10C3C0000068C16841F02001C16000220E212720D1
:10C3D000FEF7E2FB2720D2E7003801401C3802407C
:10C3E00000000240241600200044004000480040A5
:10C3F000000402402DE9F047044690F839009946C0
:10C400000D46012801D0222858D12DB322B394F82B
:10C410003800012852D0012684F838600027E763ED
:10C4200094F8390022281AD05FF0120084F83900FD
:10C43000A284E2844FF48058E08C4B46401EE08496
:10C44000A0684FF0000240454FF08001204613D114
:10C4500001F07CFC08BB04E00120BDE8F08732203D
:10C46000E4E728882168C0F308004860206908B123
:10C470006D1C08E0AD1C06E001F068FC68B921689D
:10C4800015F8010B4860E08C0028D5D14B460022FE
:10C490004021204601F05AFC08B10320DDE794F862
:10C4A0003900322806D084F8396000BF84F838702B
:10C4B0000020D2E7222084F83900F7E70220CCE7F9
:10C4C000FEE708B505208DF800009DF80000002863
:10C4D00003D09DF80000401EF5E708BD70B500F0E0
:10C4E000CBFB0E4D4FF40054002221462846FEF7A8
:10C4F000DCFA002261102846FEF7D7FAFFF7E1FFC9
:10C50000012221462846FEF7D0FAFFF7DAFF21463E
:10C510002846BDE870400022FEF7C7BA000402407A
:10C5200010B500F0F3F8A22000F0B6F800F036F9EC
:10C53000012858D0002000F0AFF800F02FF90128B2
:10C5400051D0002000F0A8F800F028F901284AD0C6
:10C55000132000F0A1F800F021F9012843D000F0E9
:10C56000D5F8A22000F098F800F018F901283AD088
:10C57000092000F091F800F011F9012833D0802053
:10C5800000F08AF800F00AF901282CD0802000F091
:10C5900083F800F003F9012825D0802000F07CF812
:10C5A00000F0FCF801281ED0802000F075F800F0A3
:10C5B000F5F8012817D0002000F06EF800F0EEF832
:10C5C000012810D0822000F067F800F0E7F8012879
:10C5D00009D0012000F060F800F0E0F8012802D056
:10C5E00000F0B8F8002010BD70B500F045FB0E4D0E
:10C5F0004FF40054002221462846FEF756FA012245
:10C6000011032846FEF751FAFFF75BFF012221468E
:10C610002846FEF74AFAFFF754FF21462846BDE8B0
:10C6200070400022FEF741BA000402402DE9F047B5
:10C630000825002400F002FB0122DFF858801603D1
:10C6400031464046FEF731FAB146AF02464616E0A3
:10C650006006040E002239463046FEF726FAFFF740
:10C6600030FF012239463046FEF71FFAFFF729FF57
:10C6700049463046FEF714FA08B144F001046D1E35
:10C68000EDB2E5D2002239463046FEF70EFA2046DA
:10C69000BDE8F087000402402DE9F0410646082479
:10C6A00000F0EAFA4FF48058A702174D1DE000BFD2
:10C6B000FEF7FBF9300601D5012200E000224146D9
:10C6C0002846FEF7F2F97006060EFFF7FAFE012281
:10C6D00039462846FEF7E9F9FFF7F3FE002239460E
:10C6E0002846FEF7E2F9FFF7ECFE641EE4B24FF0D5
:10C6F000000239462846DBD2FEF7D7F941462846E4
:10C70000BDE8F041FEF7CCB90004024070B500F07E
:10C71000B3FA01220E4D140321462846FEF7C5F94F
:10C720000122560331462846FEF7BFF9FFF7C9FE3E
:10C73000002221462846FEF7B8F9FFF7C2FE002284
:10C7400031462846FEF7B1F9BDE87040FFF7B9BEA3
:10C750000004024070B500F08FFA01220E4D540320
:10C7600021462846FEF7A1F96610002231462846E8
:10C77000FEF79BF9FFF7A5FE012231462846FEF79A
:10C7800094F9FFF79EFE002221462846FEF78DF918
:10C79000BDE87040FFF795BE0004024070B500F0A0
:10C7A0004DFA184C4FF40055002229462046FEF75A
:10C7B0007CF9FFF786FE0122160331462046FEF77C
:10C7C00074F9FFF77EFE012229462046FEF76DF937
:10C7D000FFF777FE31462046FEF762F940B1FFF7DA
:10C7E00070FE002229462046FEF75FF9012070BD49
:10C7F000FFF767FE002229462046FEF756F9002083
:10C8000070BD000000040240054804490160042195
:10C81000416040F6FF718160FEF752B90030004080
:10C8200004170020F0B52E4887B0016841F00201DE
:10C830000160016801F002010591016841F02001E9
:10C840000160016801F020010591016841F00101DA
:10C850000160016801F001010591016841F00401E6
:10C8600001600068002400F0040005904FF480701F
:10C87000CDE900041B4F032569463846CDE9024542
:10C88000FEF748F80126CDE9005669463846CDE95D
:10C890000245FEF73FF8002201213846FEF705F970
:10C8A000002202213846FEF700F9E020CDE900061B
:10C8B0000D4F69463846CDE90245FEF72BF80122B7
:10C8C000E0213846FEF7F1F82803CDE90006694675
:10C8D0003846CDE90245FEF71DF807B0F0BD00006F
:10C8E0001C380240000002400004024010B5144809
:10C8F0008AB012490024C0E900147F218160FF2121
:10C90000C0E9031444618461FFF776F84FF4807046
:10C91000099001208DF82000800707904FF08030AB
:10C9200005904FF0706001940690009400226946D3
:10C930000348FFF711F90AB010BD000000280040BD
:10C94000E4160020FEE770470907090E002806DA02
:10C9500000F00F0000F1E02080F8141D704700F196
:10C96000E02080F80014704770B5FFF7CFFEA220DA
:10C97000FFF792FEFFF712FF012863D00220FFF7B6
:10C980008BFEFFF70BFF01285CD0FFF7BFFEA32053
:10C99000FFF782FEFFF702FF012853D0FFF746FEA4
:10C9A000294C2070FFF79AFDFFF740FE6070FFF7FB
:10C9B00095FDFFF73BFEA070FFF790FDFFF736FEF9
:10C9C000E070FFF78BFDFFF731FE2071FFF786FD6A
:10C9D000FFF72CFE6071FFF781FDFFF727FEA071C6
:10C9E000FFF702FEFFF7B6FE6179A07901F01F01A3
:10C9F0006171E17801F03F01E170A17801F03F0140
:10CA0000A170617801F07F016170217801F07F01F0
:10CA1000217000F0E1F8E51F2870607900F0DCF883
:10CA20006870E07800F0D8F8E870A07800F0D4F8EA
:10CA30002871607800F0D0F86871207800F0CCF8A8
:10CA4000A871002070BD0000AB0000202DE9F04768
:10CA50001D46DDE9087690468946632800D9002006
:10CA6000B9F10C0F01D94FF00109B8F11F0F01D92D
:10CA70004FF00108172D00D900253B2F00D90027C2
:10CA80003B2E00D9002600F0B0F82E4C207048460E
:10CA900000F0ABF86070404600F0A7F8E070284660
:10CAA00000F0A3F82071384600F09FF8607130461E
:10CAB00000F09BF8A071FFF729FEA220FFF7ECFD24
:10CAC000FFF76CFE01283AD00220FFF7E5FDFFF7E3
:10CAD00065FE012833D0A079FFF7DEFDFFF75EFE8B
:10CAE00001282CD06079FFF7D7FDFFF757FE01280A
:10CAF00025D02079FFF7D0FDFFF750FE01281ED08A
:10CB0000E078FFF7C9FDFFF749FE012817D00320A1
:10CB1000FFF7C2FDFFF742FE012810D06078FFF753
:10CB2000BBFDFFF73BFE012809D02078FFF7B4FDDD
:10CB3000FFF734FE012802D0FFF70CFE0020BDE80D
:10CB4000F0870000A4000020704701210846FEF78E
:10CB500079B80000F8B507461A48002600681A4D53
:10CB600010F0F00F20D1174C1C342068C00002D503
:10CB7000FEF754F80DE0206840F0805020602068F7
:10CB800000F080500090FEF749F8216821F08051B4
:10CB90002160B0F5C05F07D1B7F5404F04D12868D8
:10CBA000012640F004002860286820F0010030438E
:10CBB0002860286800F00100B04201D00120F8BDD3
:10CBC0000020F8BD08380240003C02400148FEF752
:10CBD00097BE0000E4160020010901EB810100F07E
:10CBE0000F0000EB4100C0B27047002102E00A389C
:10CBF000C0B2491C0A28FAD2090740EA11607047FE
:10CC000070B504460068C168490614D44FF0FF317E
:10CC1000C160FDF74FFF05464FF47A7607E000BF8D
:10CC2000FDF748FF401BB04201D9032070BD2068CA
:10CC3000C0684006F4D5002070BD00000C4800B567
:10CC4000016887B041F0020101600068694600F0A8
:10CC5000020005904FF48050009000200190029057
:10CC6000032003900348FDF755FE07B000BD000008
:10CC70001C380240000402400C4800B5016887B02F
:10CC800041F0020101600068694600F00200059071
:10CC90004FF480500090012001900020029003206A
:10CCA00003900348FDF736FE07B000BD1C38024074
:10CCB0000004024070B588B0002504460126FF2319
:10CCC0002A460A2105A8009500F07AFA059810F086
:10CCD000FF0F63D1FE2000F0E1FA00285ED101AE23
:10CCE000FF2000F055FA70556D1C102DF8D3FF2071
:10CCF00000F04EFAFF2000F04BFA9DF8040020707F
:10CD00009DF805000002608060889DF806100843C9
:10CD100060809DF807000006606060689DF808105C
:10CD200040EA0140606060689DF8091040EA012017
:10CD3000606060689DF80A10084360609DF80B0011
:10CD400020729DF80C0060729DF80D000006E060F6
:10CD5000E0689DF80E1040EA0140E060E0689DF850
:10CD60000F1040EA0120E060E0689DF810100843D1
:10CD7000E060217C9DF8110041EA10112174000748
:10CD8000000D6082608A9DF81210084360829DF851
:10CD9000130040082075012060750026012000F076
:10CDA000BBF9FF2000F0F4F908B0304670BD000078
:10CDB00070B588B0002504460126FF232A460921C4
:10CDC00005A8009500F0FCF9059810F0FF0F7DD143
:10CDD000FE2000F063FA0028F9D101AEFF2000F038
:10CDE000D7F970556D1CADB2102DF7D3FF2000F0B0
:10CDF000CFF9FF2000F0CCF99DF8041020788A09C3
:10CE000062F3010061F3870020709DF805006070F7
:10CE10009DF80600A0709DF80700E0709DF80800DE
:10CE200001019DF8090041EA1012A18862F30B018B
:10CE3000A180617960F3071161719DF80A00A17901
:10CE4000C20962F30001820962F34101420962F3FF
:10CE50008201020962F3C301A17151494988002985
:10CE600072D081009DF80B0041EA9012217A0004F3
:10CE700062F3050121729DF80C1040EA01209DF833
:10CE80000D100843A16860F39B11A160E07A20F0C7
:10CE90001000E0729DF80E10207C8A0962F30000F9
:10CEA0009DF80F20490041EAD21161F34700207438
:10CEB000617C9DF8100062F30601C20962F3C7119C
:10CEC0006174A17C420962F3010100E032E0820852
:10CED00062F38401A1749DF81110800040EA911260
:10CEE000E07C62F303004A0962F30410E074207DE1
:10CEF00061F304009DF81210CA0962F345108A0913
:10CF000062F386104A0962F3C7102075607D0A0932
:10CF100062F300008A0862F3420061F3C4006075A6
:10CF20009DF81310A07D4A0862F3060061F3C71054
:10CF3000A0750026012000F0EFF8FF2000F028F98E
:10CF400008B0304670BDFFE7217A820862F3010124
:10CF500021729DF80B10800240EA81009DF80C10B0
:10CF600040EA9112208962F38D002081A07ACA08DC
:10CF700062F3020061F3C500A0729DF80D10E07A23
:10CF80004A0962F302008A0862F3C500E07288076A
:10CF90009DF80E10400F40EAD11020737AE7000090
:10CFA000F20000202DE9FF4100248DF80C4000BF65
:10CFB0009DF80C00401C8DF80C00002295231146B2
:10CFC00001A8009400F0FCF80120019D00F0A4F8F5
:10CFD000FF2000F0DDF89DF80C0064287ED2E8B256
:10CFE0000128E5D10520009087234FF4D572082150
:10CFF00001A800F0E5F80120019D00F08DF8FF2068
:10D0000000F0C6F8E8B2434E41071FD5FF230022C7
:10D01000372101A8009400F0D3F8012000F07CF83B
:10D02000FF2000F0B5F8FF230022292101A8009479
:10D0300000F0C6F80120019D00F06EF8FF2000F01E
:10D04000A7F8E8B20128E1D0748060E0012856D149
:10D050008707FF230022372101A8009400F0B0F8D1
:10D06000012000F059F8FF2000F092F8FF233A4623
:10D07000292101A8009400F0A3F80120019D00F0EF
:10D080004BF8FF2000F084F8E8B20128E1D06807EF
:10D0900021D5FF230022372101A8009400F090F849
:10D0A0000120019D00F038F8FF2000F071F8E8B28F
:10D0B000012824D1FF230022292101A8009400F097
:10D0C0007FF80120019D00F027F8FF2000F060F8B4
:10D0D000E8B20128DDD00320FF2300E00FE000903C
:10D0E00000223A2101A800F06BF80120019C00F019
:10D0F00013F8FF2000F04CF814F0FF0F03D00120CC
:10D1000004B0BDE8F081200AC0F3801070800020D8
:10D11000F6E70000F2000020044B012804D00022B2
:10D1200001211846FDF7C1BC0122F9E700040240C5
:10D1300030B587B014216846FBF77BF8124800240D
:10D14000016841F0020101600068104D00F002002A
:10D150000590012000900190029003200390694601
:10D160002846FDF7D7FB00F063F901221146284657
:10D17000FDF79BFCFF2000F00BF8641CE4B2092CC7
:10D18000F8D907B030BD00001C380240000402404E
:10D1900001B582B00122694602A800F0B5F99DF8F8
:10D1A00000000EBD00F0B0B910B50824FF20FFF755
:10D1B000EFFF641EE4B2FF2801D1002CF6D110BDB0
:10D1C0002DE9FF4106463448D0E9004541F04000D2
:10D1D0000A9F8DF80000100E8DF80100100C8DF8DC
:10D1E0000200100A8DF803008DF8042043F00100BE
:10D1F0008DF805000020FFF78FFF062202A9684680
:10D20000FFF7D0FF062F43D2DFE807F00308202AFC
:10D21000422AFFF7C9FF60F3070439E0FFF7C4FFB4
:10D2200060F30704FF20FFF7B3FF60F30F24012032
:10D23000FFF772FF0120FDF7D9FA0020FFF76CFF1E
:10D24000FF20FFF7A5FFFF28FAD121E0FFF7ACFF91
:10D2500060F30704FF20FFF79BFF60F30F2417E044
:10D26000FFF7A2FF60F30704FF20FFF791FF60F3D1
:10D270000F24FF20FFF78CFF60F31744FF20FFF718
:10D2800087FF60F31F64FF20FFF782FF60F307054D
:10D2900034603571BDE8FF81A465010870B50546AD
:10D2A0004FF6FF74FF20FFF773FF641EA4B2A8427D
:10D2B00002D0002CF6D102E00CB1002070BD02209B
:10D2C00070BD000010B5064C01202070FCF710FA6C
:10D2D00018B9207820F001002070207810BD0000DF
:10D2E000F000002010B514460F4A8EB001201278CD
:10D2F000D20702D003200EB010BD89B1012907D09A
:10D300004FF4007202290AD003290BD00420F2E75F
:10D310006846FCF7A7F90C98400A206000E02280DC
:10D320000020E8E72260E6E7F000002010B508469C
:10D33000510200244FF40072FCF7E6F900B1012419
:10D34000204610BD10B5064C01202070FCF7B6F940
:10D3500018B9207820F001002070207810BD00005E
:10D36000F000002010B50846510200244FF400726E
:10D37000FCF732FA00B10124204610BD2DE9F04738
:10D380001D4690460E460446FDF794FB07465FEAAD
:10D3900008004FF000084FF4005A4FF0010926D062
:10D3A00034E0681C23D025B1FDF784FBC01BA842E4
:10D3B0001DD92068416821F0E001416020680168C2
:10D3C00021F040010160A06A504509D12068016840
:10D3D00021F4005101602068016841F400510160AE
:10D3E00084F8519084F850800320BDE8F0872068CD
:10D3F000806836EA0000D4D10DE0681C06D0002D0C
:10D40000D7D0FDF757FBC01BA842D2D82068806850
:10D4100036EA0000F1D00020E7E7000010B503482D
:10D42000FEF75BFDBDE8104000F002B810170020C9
:10D4300010B51148FEF765FD00281CD10E480F49B4
:10D44000012201600021C16142618160022202610A
:10D450000722C0E90A12C1604FF4007201628261C2
:10D4600041624FF48271416000F00AF8BDE810405B
:10D470000148FEF749BD10BD1017002000300140E3
:10D4800070B586B014216846FAF7D3FE1C480168CF
:10D4900041F001010160016801F00101059101689D
:10D4A00041F0010101600068022400F001000590D4
:10D4B0002020CDE900040120029003200525CDE9BC
:10D4C0000305104E69463046FDF724FA802000908F
:10D4D0006946049502943046FDF71CFA40200090FE
:10D4E00069463046FDF716FA0548001D016841F40B
:10D4F00080510160006800F48050059006B070BD56
:10D500001C3802400000024008B5084B1B6800931D
:10D5100013460A4601460648FEF73AFD002803D0A6
:10D52000BDE80840FFF77ABF08BD0000A00000205A
:10D53000101700201FB5464C424E04F11C0003900A
:10D54000001FDFF80491DFF8048104F1140B04F1EB
:10D55000100A0025CDF808004FF0FF31B06906F041
:10D560004FFE0028F8D106E0207A01280BD00228CF
:10D5700047D0E5602572E068401EE060401CF3D1B2
:10D58000E5602572E8E794F82000CDE90008237FE4
:10D59000227E217D207C07F0DDF80746A06D48B192
:10D5A000D4E90701CDE9000104F1100129A00EC959
:10D5B00003F0E8F8012F4FF0010211464F464846AC
:10D5C00018D0FDF772FA2EA003F0DCF8002201213A
:10D5D0003846FDF76AFA4FF47A7006F066FD1C488B
:10D5E000DDE902232030CDE9000559465046FBF71E
:10D5F000FFFFC0E7FDF759FA144923A003F0C2F872
:10D60000E4E74821CDE90018237F227E217D207C9C
:10D6100007F0A0F8012810D019A003F0B3F800BF5C
:10D620004FF47A7006F041FDDDE90223009559467A
:10D6300050460195FBF7ACFF9DE7044912A003F0AB
:10D64000A1F8EDE784000020000002404806002019
:10D6500078050020726561645F66696C653D3230F3
:10D66000253032642D253032642D2530326420255A
:10D670003032643A253032643A30300D0A0000000E
:10D680003C463E0D0A0000002573000070B50C46B4
:10D6900011781546012903D9A1F10101117070BD5E
:10D6A000FDD12178A1F1010111F0FF01217004D118
:10D6B0000C2121700178491E0170007806F008FCE9
:10D6C000C0B200EB800101EBC000044901EB400057
:10D6D000217810F81100287070BD0000E05F01088B
:10D6E00010B506F0BDFDBDE81040FDF719BA000009
:10D6F0000EB5DFF8C0810026DFF8B4B1DFF8B891CD
:10D700006E4C6F4FB24645464FF0FF31E86806F069
:10D7100077FD40B94FF4FA71686906F0F9FC48B139
:10D7200068A003F02FF838680028EDD06448FDF7B2
:10D73000F0F9E9E7002261496848FEF731F9002273
:10D740005C496648FEF70AF9D9F8580068B12078B4
:10D75000A27861788DE8070098F8023098F80120E7
:10D7600098F803105EA003F00DF85A2E0ED008D2E0
:10D77000D9F8580006F1010618B1314662A003F04D
:10D7800001F8D9F80000012859D05EE0D9F8580016
:10D790005B2640B131465CA002F0F4FF60A0D9F8EE
:10D7A0006C1002F0EFFFD9F86C00022812D00328A9
:10D7B00007D0042817D005281ED0062825D0072812
:10D7C0002CD0012202215846FDF76FF9FF231022C9
:10D7D00056A12BE0012202215846FDF766F9FF23EE
:10D7E000102256A122E0012202215846FDF75DF9E0
:10D7F000FF23102255A119E0012202215846FDF70E
:10D8000054F9FF23102255A110E0012202215846AD
:10D81000FDF74BF9FF23102254A107E0012202215A
:10D820005846FDF742F9FF23102254A15748FEF74E
:10D83000E1FD002202215846FDF737F9A1E707F084
:10D840001DFA28B152A002F09DFFA07818B122E085
:10D85000C9F800A0F9E7D9F85C00E0B9174898F8D2
:10D8600003203C30426198F80120026198F80210D0
:10D87000C160217881606178C0E900A107F00CFEE9
:10D88000286940B1D9F8580010B143A002F07AFFDE
:10D89000286906F091FC6078192804D1A0781E2828
:10D8A00001D107F05FFA686906F00EFC3BE7000063
:10D8B000000002403C0000207805002010050020F8
:10D8C00004170020C3BBD3D0B5C8B5BDBBA5B3E218
:10D8D000D0C5BAC5C1BF0D0A00000000E416002083
:10D8E00074696D653A3230253032642D25303264EA
:10D8F0002D2530326420253032643A253032643AA6
:10D90000253032640D0A00007365636F6E64735FC7
:10D91000706F7765723D253032640D0A000000009B
:10D92000626175643D25640D0A0000007365742012
:10D9300031363A426175643D330D0A0073657420D7
:10D9400031363A426175643D320D0A0073657420C8
:10D9500031363A426175643D340D0A0073657420B6
:10D9600031363A426175643D350D0A0073657420A5
:10D9700031363A426175643D360D0A007365742094
:10D9800031363A426175643D370D0A00A416002015
:10D990003C463E0D0A00000072656C6561736520AF
:10D9A00073656D6170686F72655F646174610D0AA3
:10D9B00000000000F0B593B014210DA8FAF739FC6F
:10D9C00034216846FAF735FC012602250096E80363
:10D9D0000196CDE909504FF44020AF05CDE90B0782
:10D9E0006846FDF7D9FB002470B110200095099519
:10D9F000CDE90360C003CDE90A400C976846FDF706
:10DA0000CBFB08B1FDF7FAF81248016841F08051EC
:10DA10000160006800F0805012900F48016821F406
:10DA2000C05141F4006101604168C943C906FBD59A
:10DA30000F200D900320CDE90E04109401210DA8B4
:10DA40001194FDF7DBF9002801D0FDF7D7F813B0EA
:10DA5000F0BD000024380240007000400F4801680B
:10DA600041F4807101600D4908310A680C4B1A407D
:10DA70000A6002680B4B1A400260026822F480229E
:10DA80000260086820F47D0008600020091D08601D
:10DA900005494FF000600860704700000038024000
:10DAA0000CC0FF88FEFFFEEE08ED00E02DE9F0411E
:10DAB000044600680169E26821F4405111430161A4
:10DAC0002169A068E269084361691143084321683C
:10DAD000CA6849F20C639A430243CA6020684169EC
